{
  "_format": "hh-sol-artifact-1",
  "contractName": "MyNFT",
  "sourceName": "contracts/MyNFT.sol",
  "abi": [
    {
      "inputs": [
        {
          "internalType": "string",
          "name": "name",
          "type": "string"
        },
        {
          "internalType": "string",
          "name": "symbol",
          "type": "string"
        },
        {
          "internalType": "string",
          "name": "_promptDescription",
          "type": "string"
        }
      ],
      "stateMutability": "nonpayable",
      "type": "constructor"
    },
    {
      "anonymous": false,
      "inputs": [
        {
          "indexed": true,
          "internalType": "address",
          "name": "owner",
          "type": "address"
        },
        {
          "indexed": true,
          "internalType": "address",
          "name": "approved",
          "type": "address"
        },
        {
          "indexed": true,
          "internalType": "uint256",
          "name": "tokenId",
          "type": "uint256"
        }
      ],
      "name": "Approval",
      "type": "event"
    },
    {
      "anonymous": false,
      "inputs": [
        {
          "indexed": true,
          "internalType": "address",
          "name": "owner",
          "type": "address"
        },
        {
          "indexed": true,
          "internalType": "address",
          "name": "operator",
          "type": "address"
        },
        {
          "indexed": false,
          "internalType": "bool",
          "name": "approved",
          "type": "bool"
        }
      ],
      "name": "ApprovalForAll",
      "type": "event"
    },
    {
      "anonymous": false,
      "inputs": [
        {
          "indexed": true,
          "internalType": "address",
          "name": "from",
          "type": "address"
        },
        {
          "indexed": true,
          "internalType": "address",
          "name": "to",
          "type": "address"
        },
        {
          "indexed": true,
          "internalType": "uint256",
          "name": "tokenId",
          "type": "uint256"
        }
      ],
      "name": "Transfer",
      "type": "event"
    },
    {
      "inputs": [
        {
          "internalType": "address",
          "name": "to",
          "type": "address"
        },
        {
          "internalType": "uint256",
          "name": "tokenId",
          "type": "uint256"
        }
      ],
      "name": "approve",
      "outputs": [],
      "stateMutability": "nonpayable",
      "type": "function"
    },
    {
      "inputs": [
        {
          "internalType": "address",
          "name": "owner",
          "type": "address"
        }
      ],
      "name": "balanceOf",
      "outputs": [
        {
          "internalType": "uint256",
          "name": "",
          "type": "uint256"
        }
      ],
      "stateMutability": "view",
      "type": "function"
    },
    {
      "inputs": [
        {
          "internalType": "address[]",
          "name": "recipients",
          "type": "address[]"
        },
        {
          "internalType": "string[]",
          "name": "tokenURIsArray",
          "type": "string[]"
        }
      ],
      "name": "batchMint",
      "outputs": [
        {
          "internalType": "uint256[]",
          "name": "",
          "type": "uint256[]"
        }
      ],
      "stateMutability": "nonpayable",
      "type": "function"
    },
    {
      "inputs": [
        {
          "internalType": "uint256",
          "name": "tokenId",
          "type": "uint256"
        }
      ],
      "name": "getApproved",
      "outputs": [
        {
          "internalType": "address",
          "name": "",
          "type": "address"
        }
      ],
      "stateMutability": "view",
      "type": "function"
    },
    {
      "inputs": [
        {
          "internalType": "address",
          "name": "owner",
          "type": "address"
        },
        {
          "internalType": "address",
          "name": "operator",
          "type": "address"
        }
      ],
      "name": "isApprovedForAll",
      "outputs": [
        {
          "internalType": "bool",
          "name": "",
          "type": "bool"
        }
      ],
      "stateMutability": "view",
      "type": "function"
    },
    {
      "inputs": [
        {
          "internalType": "address",
          "name": "recipient",
          "type": "address"
        },
        {
          "internalType": "string",
          "name": "_tokenURI",
          "type": "string"
        }
      ],
      "name": "mintNFT",
      "outputs": [
        {
          "internalType": "uint256",
          "name": "",
          "type": "uint256"
        }
      ],
      "stateMutability": "nonpayable",
      "type": "function"
    },
    {
      "inputs": [],
      "name": "name",
      "outputs": [
        {
          "internalType": "string",
          "name": "",
          "type": "string"
        }
      ],
      "stateMutability": "view",
      "type": "function"
    },
    {
      "inputs": [
        {
          "internalType": "uint256",
          "name": "tokenId",
          "type": "uint256"
        }
      ],
      "name": "ownerOf",
      "outputs": [
        {
          "internalType": "address",
          "name": "",
          "type": "address"
        }
      ],
      "stateMutability": "view",
      "type": "function"
    },
    {
      "inputs": [],
      "name": "promptDescriptionDetail",
      "outputs": [
        {
          "internalType": "string",
          "name": "",
          "type": "string"
        }
      ],
      "stateMutability": "view",
      "type": "function"
    },
    {
      "inputs": [
        {
          "internalType": "address",
          "name": "from",
          "type": "address"
        },
        {
          "internalType": "address",
          "name": "to",
          "type": "address"
        },
        {
          "internalType": "uint256",
          "name": "tokenId",
          "type": "uint256"
        }
      ],
      "name": "safeTransferFrom",
      "outputs": [],
      "stateMutability": "nonpayable",
      "type": "function"
    },
    {
      "inputs": [
        {
          "internalType": "address",
          "name": "from",
          "type": "address"
        },
        {
          "internalType": "address",
          "name": "to",
          "type": "address"
        },
        {
          "internalType": "uint256",
          "name": "tokenId",
          "type": "uint256"
        },
        {
          "internalType": "bytes",
          "name": "data",
          "type": "bytes"
        }
      ],
      "name": "safeTransferFrom",
      "outputs": [],
      "stateMutability": "nonpayable",
      "type": "function"
    },
    {
      "inputs": [
        {
          "internalType": "address",
          "name": "operator",
          "type": "address"
        },
        {
          "internalType": "bool",
          "name": "approved",
          "type": "bool"
        }
      ],
      "name": "setApprovalForAll",
      "outputs": [],
      "stateMutability": "nonpayable",
      "type": "function"
    },
    {
      "inputs": [
        {
          "internalType": "bytes4",
          "name": "interfaceId",
          "type": "bytes4"
        }
      ],
      "name": "supportsInterface",
      "outputs": [
        {
          "internalType": "bool",
          "name": "",
          "type": "bool"
        }
      ],
      "stateMutability": "view",
      "type": "function"
    },
    {
      "inputs": [],
      "name": "symbol",
      "outputs": [
        {
          "internalType": "string",
          "name": "",
          "type": "string"
        }
      ],
      "stateMutability": "view",
      "type": "function"
    },
    {
      "inputs": [
        {
          "internalType": "uint256",
          "name": "tokenId",
          "type": "uint256"
        }
      ],
      "name": "tokenURI",
      "outputs": [
        {
          "internalType": "string",
          "name": "",
          "type": "string"
        }
      ],
      "stateMutability": "view",
      "type": "function"
    },
    {
      "inputs": [
        {
          "internalType": "address",
          "name": "from",
          "type": "address"
        },
        {
          "internalType": "address",
          "name": "to",
          "type": "address"
        },
        {
          "internalType": "uint256",
          "name": "tokenId",
          "type": "uint256"
        }
      ],
      "name": "transferFrom",
      "outputs": [],
      "stateMutability": "nonpayable",
      "type": "function"
    }
  ],
  "bytecode": "0x60806040523480156200001157600080fd5b50604051620035b4380380620035b483398181016040528101906200003791906200024e565b828281600090816200004a919062000552565b5080600190816200005c919062000552565b505050806007908162000070919062000552565b5033600960006101000a81548173ffffffffffffffffffffffffffffffffffffffff021916908373ffffffffffffffffffffffffffffffffffffffff16021790555050505062000639565b6000604051905090565b600080fd5b600080fd5b600080fd5b600080fd5b6000601f19601f8301169050919050565b7f4e487b7100000000000000000000000000000000000000000000000000000000600052604160045260246000fd5b6200012482620000d9565b810181811067ffffffffffffffff82111715620001465762000145620000ea565b5b80604052505050565b60006200015b620000bb565b905062000169828262000119565b919050565b600067ffffffffffffffff8211156200018c576200018b620000ea565b5b6200019782620000d9565b9050602081019050919050565b60005b83811015620001c4578082015181840152602081019050620001a7565b60008484015250505050565b6000620001e7620001e1846200016e565b6200014f565b905082815260208101848484011115620002065762000205620000d4565b5b62000213848285620001a4565b509392505050565b600082601f830112620002335762000232620000cf565b5b815162000245848260208601620001d0565b91505092915050565b6000806000606084860312156200026a5762000269620000c5565b5b600084015167ffffffffffffffff8111156200028b576200028a620000ca565b5b62000299868287016200021b565b935050602084015167ffffffffffffffff811115620002bd57620002bc620000ca565b5b620002cb868287016200021b565b925050604084015167ffffffffffffffff811115620002ef57620002ee620000ca565b5b620002fd868287016200021b565b9150509250925092565b600081519050919050565b7f4e487b7100000000000000000000000000000000000000000000000000000000600052602260045260246000fd5b600060028204905060018216806200035a57607f821691505b60208210810362000370576200036f62000312565b5b50919050565b60008190508160005260206000209050919050565b60006020601f8301049050919050565b600082821b905092915050565b600060088302620003da7fffffffffffffffffffffffffffffffffffffffffffffffffffffffffffffffff826200039b565b620003e686836200039b565b95508019841693508086168417925050509392505050565b6000819050919050565b6000819050919050565b6000620004336200042d6200042784620003fe565b62000408565b620003fe565b9050919050565b6000819050919050565b6200044f8362000412565b620004676200045e826200043a565b848454620003a8565b825550505050565b600090565b6200047e6200046f565b6200048b81848462000444565b505050565b5b81811015620004b357620004a760008262000474565b60018101905062000491565b5050565b601f8211156200050257620004cc8162000376565b620004d7846200038b565b81016020851015620004e7578190505b620004ff620004f6856200038b565b83018262000490565b50505b505050565b600082821c905092915050565b6000620005276000198460080262000507565b1980831691505092915050565b600062000542838362000514565b9150826002028217905092915050565b6200055d8262000307565b67ffffffffffffffff811115620005795762000578620000ea565b5b62000585825462000341565b62000592828285620004b7565b600060209050601f831160018114620005ca5760008415620005b5578287015190505b620005c1858262000534565b86555062000631565b601f198416620005da8662000376565b60005b828110156200060457848901518255600182019150602085019450602081019050620005dd565b8683101562000624578489015162000620601f89168262000514565b8355505b6001600288020188555050505b505050505050565b612f6b80620006496000396000f3fe608060405234801561001057600080fd5b50600436106101005760003560e01c806364ba144e11610097578063b88d4fde11610066578063b88d4fde146102bf578063c87b56dd146102db578063e985e9c51461030b578063eacabe141461033b57610100565b806364ba144e1461022557806370a082311461025557806395d89b4114610285578063a22cb465146102a357610100565b80632022bc24116100d35780632022bc241461019f57806323b872dd146101bd57806342842e0e146101d95780636352211e146101f557610100565b806301ffc9a71461010557806306fdde0314610135578063081812fc14610153578063095ea7b314610183575b600080fd5b61011f600480360381019061011a919061198c565b61036b565b60405161012c91906119d4565b60405180910390f35b61013d61044d565b60405161014a9190611a7f565b60405180910390f35b61016d60048036038101906101689190611ad7565b6104df565b60405161017a9190611b45565b60405180910390f35b61019d60048036038101906101989190611b8c565b610525565b005b6101a761063c565b6040516101b49190611a7f565b60405180910390f35b6101d760048036038101906101d29190611bcc565b6106ce565b005b6101f360048036038101906101ee9190611bcc565b61072e565b005b61020f600480360381019061020a9190611ad7565b61074e565b60405161021c9190611b45565b60405180910390f35b61023f600480360381019061023a9190611efd565b6107d4565b60405161024c9190612033565b60405180910390f35b61026f600480360381019061026a9190612055565b6108ef565b60405161027c9190612091565b60405180910390f35b61028d6109a6565b60405161029a9190611a7f565b60405180910390f35b6102bd60048036038101906102b891906120d8565b610a38565b005b6102d960048036038101906102d491906121b9565b610a4e565b005b6102f560048036038101906102f09190611ad7565b610ab0565b6040516103029190611a7f565b60405180910390f35b6103256004803603810190610320919061223c565b610b9d565b60405161033291906119d4565b60405180910390f35b6103556004803603810190610350919061227c565b610c31565b6040516103629190612091565b60405180910390f35b60007f80ac58cd000000000000000000000000000000000000000000000000000000007bffffffffffffffffffffffffffffffffffffffffffffffffffffffff1916827bffffffffffffffffffffffffffffffffffffffffffffffffffffffff1916148061043657507f5b5e139f000000000000000000000000000000000000000000000000000000007bffffffffffffffffffffffffffffffffffffffffffffffffffffffff1916827bffffffffffffffffffffffffffffffffffffffffffffffffffffffff1916145b80610446575061044582610cf9565b5b9050919050565b60606000805461045c90612307565b80601f016020809104026020016040519081016040528092919081815260200182805461048890612307565b80156104d55780601f106104aa576101008083540402835291602001916104d5565b820191906000526020600020905b8154815290600101906020018083116104b857829003601f168201915b5050505050905090565b60006104ea82610d63565b6004600083815260200190815260200160002060009054906101000a900473ffffffffffffffffffffffffffffffffffffffff169050919050565b60006105308261074e565b90508073ffffffffffffffffffffffffffffffffffffffff168373ffffffffffffffffffffffffffffffffffffffff16036105a0576040517f08c379a0000000000000000000000000000000000000000000000000000000008152600401610597906123aa565b60405180910390fd5b8073ffffffffffffffffffffffffffffffffffffffff166105bf610dae565b73ffffffffffffffffffffffffffffffffffffffff1614806105ee57506105ed816105e8610dae565b610b9d565b5b61062d576040517f08c379a00000000000000000000000000000000000000000000000000000000081526004016106249061243c565b60405180910390fd5b6106378383610db6565b505050565b60606007805461064b90612307565b80601f016020809104026020016040519081016040528092919081815260200182805461067790612307565b80156106c45780601f10610699576101008083540402835291602001916106c4565b820191906000526020600020905b8154815290600101906020018083116106a757829003601f168201915b5050505050905090565b6106df6106d9610dae565b82610e6f565b61071e576040517f08c379a0000000000000000000000000000000000000000000000000000000008152600401610715906124ce565b60405180910390fd5b610729838383610f04565b505050565b61074983838360405180602001604052806000815250610a4e565b505050565b60008061075a836111fd565b9050600073ffffffffffffffffffffffffffffffffffffffff168173ffffffffffffffffffffffffffffffffffffffff16036107cb576040517f08c379a00000000000000000000000000000000000000000000000000000000081526004016107c29061253a565b60405180910390fd5b80915050919050565b6060815183511461081a576040517f08c379a0000000000000000000000000000000000000000000000000000000008152600401610811906125cc565b60405180910390fd5b6000835167ffffffffffffffff81111561083757610836611c24565b5b6040519080825280602002602001820160405280156108655781602001602082028036833780820191505090505b50905060005b84518110156108e4576108b285828151811061088a576108896125ec565b5b60200260200101518583815181106108a5576108a46125ec565b5b6020026020010151610c31565b8282815181106108c5576108c46125ec565b5b60200260200101818152505080806108dc9061264a565b91505061086b565b508091505092915050565b60008073ffffffffffffffffffffffffffffffffffffffff168273ffffffffffffffffffffffffffffffffffffffff160361095f576040517f08c379a000000000000000000000000000000000000000000000000000000000815260040161095690612704565b60405180910390fd5b600360008373ffffffffffffffffffffffffffffffffffffffff1673ffffffffffffffffffffffffffffffffffffffff168152602001908152602001600020549050919050565b6060600180546109b590612307565b80601f01602080910402602001604051908101604052809291908181526020018280546109e190612307565b8015610a2e5780601f10610a0357610100808354040283529160200191610a2e565b820191906000526020600020905b815481529060010190602001808311610a1157829003601f168201915b5050505050905090565b610a4a610a43610dae565b838361123a565b5050565b610a5f610a59610dae565b83610e6f565b610a9e576040517f08c379a0000000000000000000000000000000000000000000000000000000008152600401610a95906124ce565b60405180910390fd5b610aaa848484846113a6565b50505050565b6060610abb82611402565b610afa576040517f08c379a0000000000000000000000000000000000000000000000000000000008152600401610af190612796565b60405180910390fd5b600860008381526020019081526020016000208054610b1890612307565b80601f0160208091040260200160405190810160405280929190818152602001828054610b4490612307565b8015610b915780601f10610b6657610100808354040283529160200191610b91565b820191906000526020600020905b815481529060010190602001808311610b7457829003601f168201915b50505050509050919050565b6000600560008473ffffffffffffffffffffffffffffffffffffffff1673ffffffffffffffffffffffffffffffffffffffff16815260200190815260200160002060008373ffffffffffffffffffffffffffffffffffffffff1673ffffffffffffffffffffffffffffffffffffffff16815260200190815260200160002060009054906101000a900460ff16905092915050565b6000600960009054906101000a900473ffffffffffffffffffffffffffffffffffffffff1673ffffffffffffffffffffffffffffffffffffffff163373ffffffffffffffffffffffffffffffffffffffff1614610cc3576040517f08c379a0000000000000000000000000000000000000000000000000000000008152600401610cba90612828565b60405180910390fd5b6000610ccf6006611443565b9050610cdb8482611451565b610ce5818461146f565b610cef60066114dc565b8091505092915050565b60007f01ffc9a7000000000000000000000000000000000000000000000000000000007bffffffffffffffffffffffffffffffffffffffffffffffffffffffff1916827bffffffffffffffffffffffffffffffffffffffffffffffffffffffff1916149050919050565b610d6c81611402565b610dab576040517f08c379a0000000000000000000000000000000000000000000000000000000008152600401610da29061253a565b60405180910390fd5b50565b600033905090565b816004600083815260200190815260200160002060006101000a81548173ffffffffffffffffffffffffffffffffffffffff021916908373ffffffffffffffffffffffffffffffffffffffff160217905550808273ffffffffffffffffffffffffffffffffffffffff16610e298361074e565b73ffffffffffffffffffffffffffffffffffffffff167f8c5be1e5ebec7d5bd14f71427d1e84f3dd0314c0f7b2291e5b200ac8c7c3b92560405160405180910390a45050565b600080610e7b8361074e565b90508073ffffffffffffffffffffffffffffffffffffffff168473ffffffffffffffffffffffffffffffffffffffff161480610ebd5750610ebc8185610b9d565b5b80610efb57508373ffffffffffffffffffffffffffffffffffffffff16610ee3846104df565b73ffffffffffffffffffffffffffffffffffffffff16145b91505092915050565b8273ffffffffffffffffffffffffffffffffffffffff16610f248261074e565b73ffffffffffffffffffffffffffffffffffffffff1614610f7a576040517f08c379a0000000000000000000000000000000000000000000000000000000008152600401610f71906128ba565b60405180910390fd5b600073ffffffffffffffffffffffffffffffffffffffff168273ffffffffffffffffffffffffffffffffffffffff1603610fe9576040517f08c379a0000000000000000000000000000000000000000000000000000000008152600401610fe09061294c565b60405180910390fd5b610ff683838360016114f2565b8273ffffffffffffffffffffffffffffffffffffffff166110168261074e565b73ffffffffffffffffffffffffffffffffffffffff161461106c576040517f08c379a0000000000000000000000000000000000000000000000000000000008152600401611063906128ba565b60405180910390fd5b6004600082815260200190815260200160002060006101000a81549073ffffffffffffffffffffffffffffffffffffffff02191690556001600360008573ffffffffffffffffffffffffffffffffffffffff1673ffffffffffffffffffffffffffffffffffffffff168152602001908152602001600020600082825403925050819055506001600360008473ffffffffffffffffffffffffffffffffffffffff1673ffffffffffffffffffffffffffffffffffffffff16815260200190815260200160002060008282540192505081905550816002600083815260200190815260200160002060006101000a81548173ffffffffffffffffffffffffffffffffffffffff021916908373ffffffffffffffffffffffffffffffffffffffff160217905550808273ffffffffffffffffffffffffffffffffffffffff168473ffffffffffffffffffffffffffffffffffffffff167fddf252ad1be2c89b69c2b068fc378daa952ba7f163c4a11628f55a4df523b3ef60405160405180910390a46111f883838360016114f8565b505050565b60006002600083815260200190815260200160002060009054906101000a900473ffffffffffffffffffffffffffffffffffffffff169050919050565b8173ffffffffffffffffffffffffffffffffffffffff168373ffffffffffffffffffffffffffffffffffffffff16036112a8576040517f08c379a000000000000000000000000000000000000000000000000000000000815260040161129f906129b8565b60405180910390fd5b80600560008573ffffffffffffffffffffffffffffffffffffffff1673ffffffffffffffffffffffffffffffffffffffff16815260200190815260200160002060008473ffffffffffffffffffffffffffffffffffffffff1673ffffffffffffffffffffffffffffffffffffffff16815260200190815260200160002060006101000a81548160ff0219169083151502179055508173ffffffffffffffffffffffffffffffffffffffff168373ffffffffffffffffffffffffffffffffffffffff167f17307eab39ab6107e8899845ad3d59bd9653f200f220920489ca2b5937696c318360405161139991906119d4565b60405180910390a3505050565b6113b1848484610f04565b6113bd848484846114fe565b6113fc576040517f08c379a00000000000000000000000000000000000000000000000000000000081526004016113f390612a4a565b60405180910390fd5b50505050565b60008073ffffffffffffffffffffffffffffffffffffffff16611424836111fd565b73ffffffffffffffffffffffffffffffffffffffff1614159050919050565b600081600001549050919050565b61146b828260405180602001604052806000815250611685565b5050565b61147882611402565b6114b7576040517f08c379a00000000000000000000000000000000000000000000000000000000081526004016114ae90612adc565b60405180910390fd5b806008600084815260200190815260200160002090816114d79190612ca8565b505050565b6001816000016000828254019250508190555050565b50505050565b50505050565b600061151f8473ffffffffffffffffffffffffffffffffffffffff166116e0565b15611678578373ffffffffffffffffffffffffffffffffffffffff1663150b7a02611548610dae565b8786866040518563ffffffff1660e01b815260040161156a9493929190612dcf565b6020604051808303816000875af19250505080156115a657506040513d601f19601f820116820180604052508101906115a39190612e30565b60015b611628573d80600081146115d6576040519150601f19603f3d011682016040523d82523d6000602084013e6115db565b606091505b506000815103611620576040517f08c379a000000000000000000000000000000000000000000000000000000000815260040161161790612a4a565b60405180910390fd5b805181602001fd5b63150b7a0260e01b7bffffffffffffffffffffffffffffffffffffffffffffffffffffffff1916817bffffffffffffffffffffffffffffffffffffffffffffffffffffffff19161491505061167d565b600190505b949350505050565b61168f8383611703565b61169c60008484846114fe565b6116db576040517f08c379a00000000000000000000000000000000000000000000000000000000081526004016116d290612a4a565b60405180910390fd5b505050565b6000808273ffffffffffffffffffffffffffffffffffffffff163b119050919050565b600073ffffffffffffffffffffffffffffffffffffffff168273ffffffffffffffffffffffffffffffffffffffff1603611772576040517f08c379a000000000000000000000000000000000000000000000000000000000815260040161176990612ea9565b60405180910390fd5b61177b81611402565b156117bb576040517f08c379a00000000000000000000000000000000000000000000000000000000081526004016117b290612f15565b60405180910390fd5b6117c96000838360016114f2565b6117d281611402565b15611812576040517f08c379a000000000000000000000000000000000000000000000000000000000815260040161180990612f15565b60405180910390fd5b6001600360008473ffffffffffffffffffffffffffffffffffffffff1673ffffffffffffffffffffffffffffffffffffffff16815260200190815260200160002060008282540192505081905550816002600083815260200190815260200160002060006101000a81548173ffffffffffffffffffffffffffffffffffffffff021916908373ffffffffffffffffffffffffffffffffffffffff160217905550808273ffffffffffffffffffffffffffffffffffffffff16600073ffffffffffffffffffffffffffffffffffffffff167fddf252ad1be2c89b69c2b068fc378daa952ba7f163c4a11628f55a4df523b3ef60405160405180910390a461191c6000838360016114f8565b5050565b6000604051905090565b600080fd5b600080fd5b60007fffffffff0000000000000000000000000000000000000000000000000000000082169050919050565b61196981611934565b811461197457600080fd5b50565b60008135905061198681611960565b92915050565b6000602082840312156119a2576119a161192a565b5b60006119b084828501611977565b91505092915050565b60008115159050919050565b6119ce816119b9565b82525050565b60006020820190506119e960008301846119c5565b92915050565b600081519050919050565b600082825260208201905092915050565b60005b83811015611a29578082015181840152602081019050611a0e565b60008484015250505050565b6000601f19601f8301169050919050565b6000611a51826119ef565b611a5b81856119fa565b9350611a6b818560208601611a0b565b611a7481611a35565b840191505092915050565b60006020820190508181036000830152611a998184611a46565b905092915050565b6000819050919050565b611ab481611aa1565b8114611abf57600080fd5b50565b600081359050611ad181611aab565b92915050565b600060208284031215611aed57611aec61192a565b5b6000611afb84828501611ac2565b91505092915050565b600073ffffffffffffffffffffffffffffffffffffffff82169050919050565b6000611b2f82611b04565b9050919050565b611b3f81611b24565b82525050565b6000602082019050611b5a6000830184611b36565b92915050565b611b6981611b24565b8114611b7457600080fd5b50565b600081359050611b8681611b60565b92915050565b60008060408385031215611ba357611ba261192a565b5b6000611bb185828601611b77565b9250506020611bc285828601611ac2565b9150509250929050565b600080600060608486031215611be557611be461192a565b5b6000611bf386828701611b77565b9350506020611c0486828701611b77565b9250506040611c1586828701611ac2565b9150509250925092565b600080fd5b7f4e487b7100000000000000000000000000000000000000000000000000000000600052604160045260246000fd5b611c5c82611a35565b810181811067ffffffffffffffff82111715611c7b57611c7a611c24565b5b80604052505050565b6000611c8e611920565b9050611c9a8282611c53565b919050565b600067ffffffffffffffff821115611cba57611cb9611c24565b5b602082029050602081019050919050565b600080fd5b6000611ce3611cde84611c9f565b611c84565b90508083825260208201905060208402830185811115611d0657611d05611ccb565b5b835b81811015611d2f5780611d1b8882611b77565b845260208401935050602081019050611d08565b5050509392505050565b600082601f830112611d4e57611d4d611c1f565b5b8135611d5e848260208601611cd0565b91505092915050565b600067ffffffffffffffff821115611d8257611d81611c24565b5b602082029050602081019050919050565b600080fd5b600067ffffffffffffffff821115611db357611db2611c24565b5b611dbc82611a35565b9050602081019050919050565b82818337600083830152505050565b6000611deb611de684611d98565b611c84565b905082815260208101848484011115611e0757611e06611d93565b5b611e12848285611dc9565b509392505050565b600082601f830112611e2f57611e2e611c1f565b5b8135611e3f848260208601611dd8565b91505092915050565b6000611e5b611e5684611d67565b611c84565b90508083825260208201905060208402830185811115611e7e57611e7d611ccb565b5b835b81811015611ec557803567ffffffffffffffff811115611ea357611ea2611c1f565b5b808601611eb08982611e1a565b85526020850194505050602081019050611e80565b5050509392505050565b600082601f830112611ee457611ee3611c1f565b5b8135611ef4848260208601611e48565b91505092915050565b60008060408385031215611f1457611f1361192a565b5b600083013567ffffffffffffffff811115611f3257611f3161192f565b5b611f3e85828601611d39565b925050602083013567ffffffffffffffff811115611f5f57611f5e61192f565b5b611f6b85828601611ecf565b9150509250929050565b600081519050919050565b600082825260208201905092915050565b6000819050602082019050919050565b611faa81611aa1565b82525050565b6000611fbc8383611fa1565b60208301905092915050565b6000602082019050919050565b6000611fe082611f75565b611fea8185611f80565b9350611ff583611f91565b8060005b8381101561202657815161200d8882611fb0565b975061201883611fc8565b925050600181019050611ff9565b5085935050505092915050565b6000602082019050818103600083015261204d8184611fd5565b905092915050565b60006020828403121561206b5761206a61192a565b5b600061207984828501611b77565b91505092915050565b61208b81611aa1565b82525050565b60006020820190506120a66000830184612082565b92915050565b6120b5816119b9565b81146120c057600080fd5b50565b6000813590506120d2816120ac565b92915050565b600080604083850312156120ef576120ee61192a565b5b60006120fd85828601611b77565b925050602061210e858286016120c3565b9150509250929050565b600067ffffffffffffffff82111561213357612132611c24565b5b61213c82611a35565b9050602081019050919050565b600061215c61215784612118565b611c84565b90508281526020810184848401111561217857612177611d93565b5b612183848285611dc9565b509392505050565b600082601f8301126121a05761219f611c1f565b5b81356121b0848260208601612149565b91505092915050565b600080600080608085870312156121d3576121d261192a565b5b60006121e187828801611b77565b94505060206121f287828801611b77565b935050604061220387828801611ac2565b925050606085013567ffffffffffffffff8111156122245761222361192f565b5b6122308782880161218b565b91505092959194509250565b600080604083850312156122535761225261192a565b5b600061226185828601611b77565b925050602061227285828601611b77565b9150509250929050565b600080604083850312156122935761229261192a565b5b60006122a185828601611b77565b925050602083013567ffffffffffffffff8111156122c2576122c161192f565b5b6122ce85828601611e1a565b9150509250929050565b7f4e487b7100000000000000000000000000000000000000000000000000000000600052602260045260246000fd5b6000600282049050600182168061231f57607f821691505b602082108103612332576123316122d8565b5b50919050565b7f4552433732313a20617070726f76616c20746f2063757272656e74206f776e6560008201527f7200000000000000000000000000000000000000000000000000000000000000602082015250565b60006123946021836119fa565b915061239f82612338565b604082019050919050565b600060208201905081810360008301526123c381612387565b9050919050565b7f4552433732313a20617070726f76652063616c6c6572206973206e6f7420746f60008201527f6b656e206f776e6572206f7220617070726f76656420666f7220616c6c000000602082015250565b6000612426603d836119fa565b9150612431826123ca565b604082019050919050565b6000602082019050818103600083015261245581612419565b9050919050565b7f4552433732313a2063616c6c6572206973206e6f7420746f6b656e206f776e6560008201527f72206f7220617070726f76656400000000000000000000000000000000000000602082015250565b60006124b8602d836119fa565b91506124c38261245c565b604082019050919050565b600060208201905081810360008301526124e7816124ab565b9050919050565b7f4552433732313a20696e76616c696420746f6b656e2049440000000000000000600082015250565b60006125246018836119fa565b915061252f826124ee565b602082019050919050565b6000602082019050818103600083015261255381612517565b9050919050565b7f42617463684d696e743a20417272617973206c656e677468206d69736d61746360008201527f6800000000000000000000000000000000000000000000000000000000000000602082015250565b60006125b66021836119fa565b91506125c18261255a565b604082019050919050565b600060208201905081810360008301526125e5816125a9565b9050919050565b7f4e487b7100000000000000000000000000000000000000000000000000000000600052603260045260246000fd5b7f4e487b7100000000000000000000000000000000000000000000000000000000600052601160045260246000fd5b600061265582611aa1565b91507fffffffffffffffffffffffffffffffffffffffffffffffffffffffffffffffff82036126875761268661261b565b5b600182019050919050565b7f4552433732313a2061646472657373207a65726f206973206e6f74206120766160008201527f6c6964206f776e65720000000000000000000000000000000000000000000000602082015250565b60006126ee6029836119fa565b91506126f982612692565b604082019050919050565b6000602082019050818103600083015261271d816126e1565b9050919050565b7f4552433732314d657461646174613a2055524920717565727920666f72206e6f60008201527f6e6578697374656e7420746f6b656e0000000000000000000000000000000000602082015250565b6000612780602f836119fa565b915061278b82612724565b604082019050919050565b600060208201905081810360008301526127af81612773565b9050919050565b7f4f6e6c7920636f6e7472616374206f776e65722063616e206d696e74204e465460008201527f7300000000000000000000000000000000000000000000000000000000000000602082015250565b60006128126021836119fa565b915061281d826127b6565b604082019050919050565b6000602082019050818103600083015261284181612805565b9050919050565b7f4552433732313a207472616e736665722066726f6d20696e636f72726563742060008201527f6f776e6572000000000000000000000000000000000000000000000000000000602082015250565b60006128a46025836119fa565b91506128af82612848565b604082019050919050565b600060208201905081810360008301526128d381612897565b9050919050565b7f4552433732313a207472616e7366657220746f20746865207a65726f2061646460008201527f7265737300000000000000000000000000000000000000000000000000000000602082015250565b60006129366024836119fa565b9150612941826128da565b604082019050919050565b6000602082019050818103600083015261296581612929565b9050919050565b7f4552433732313a20617070726f766520746f2063616c6c657200000000000000600082015250565b60006129a26019836119fa565b91506129ad8261296c565b602082019050919050565b600060208201905081810360008301526129d181612995565b9050919050565b7f4552433732313a207472616e7366657220746f206e6f6e20455243373231526560008201527f63656976657220696d706c656d656e7465720000000000000000000000000000602082015250565b6000612a346032836119fa565b9150612a3f826129d8565b604082019050919050565b60006020820190508181036000830152612a6381612a27565b9050919050565b7f4552433732314d657461646174613a2055524920736574206f66206e6f6e657860008201527f697374656e7420746f6b656e0000000000000000000000000000000000000000602082015250565b6000612ac6602c836119fa565b9150612ad182612a6a565b604082019050919050565b60006020820190508181036000830152612af581612ab9565b9050919050565b60008190508160005260206000209050919050565b60006020601f8301049050919050565b600082821b905092915050565b600060088302612b5e7fffffffffffffffffffffffffffffffffffffffffffffffffffffffffffffffff82612b21565b612b688683612b21565b95508019841693508086168417925050509392505050565b6000819050919050565b6000612ba5612ba0612b9b84611aa1565b612b80565b611aa1565b9050919050565b6000819050919050565b612bbf83612b8a565b612bd3612bcb82612bac565b848454612b2e565b825550505050565b600090565b612be8612bdb565b612bf3818484612bb6565b505050565b5b81811015612c1757612c0c600082612be0565b600181019050612bf9565b5050565b601f821115612c5c57612c2d81612afc565b612c3684612b11565b81016020851015612c45578190505b612c59612c5185612b11565b830182612bf8565b50505b505050565b600082821c905092915050565b6000612c7f60001984600802612c61565b1980831691505092915050565b6000612c988383612c6e565b9150826002028217905092915050565b612cb1826119ef565b67ffffffffffffffff811115612cca57612cc9611c24565b5b612cd48254612307565b612cdf828285612c1b565b600060209050601f831160018114612d125760008415612d00578287015190505b612d0a8582612c8c565b865550612d72565b601f198416612d2086612afc565b60005b82811015612d4857848901518255600182019150602085019450602081019050612d23565b86831015612d655784890151612d61601f891682612c6e565b8355505b6001600288020188555050505b505050505050565b600081519050919050565b600082825260208201905092915050565b6000612da182612d7a565b612dab8185612d85565b9350612dbb818560208601611a0b565b612dc481611a35565b840191505092915050565b6000608082019050612de46000830187611b36565b612df16020830186611b36565b612dfe6040830185612082565b8181036060830152612e108184612d96565b905095945050505050565b600081519050612e2a81611960565b92915050565b600060208284031215612e4657612e4561192a565b5b6000612e5484828501612e1b565b91505092915050565b7f4552433732313a206d696e7420746f20746865207a65726f2061646472657373600082015250565b6000612e936020836119fa565b9150612e9e82612e5d565b602082019050919050565b60006020820190508181036000830152612ec281612e86565b9050919050565b7f4552433732313a20746f6b656e20616c7265616479206d696e74656400000000600082015250565b6000612eff601c836119fa565b9150612f0a82612ec9565b602082019050919050565b60006020820190508181036000830152612f2e81612ef2565b905091905056fea264697066735822122079c2bf5a047b9c4f46b1a894f2a3012178ac94071dc9052d29b4dcaa532eb03e64736f6c63430008110033",
  "linkReferences": {},
  "deployedLinkReferences": {}
}